:10000E00000E1B7F7F1B0E0000040C187F7F1B0E43
:10001E0000080C057F7F1E0CC00041221A7C7D1A41
:10002E00006061120A7E7F0800060E080B3E3E0B32
:10003E0000030B080B3E3E0B00060E08093F3E0B5D
:10004E00000E137E7E1F0E0008137E7E121D0C0006
:10005E0009127E7F1013030009127E7F101C0C0004
:10006E00000C157E7E170E000030380D7E7F1D08A9
:10007E00C0C0301B7C7F0800000037F8FA34000047
:10008E0000001B7C7C1A01000000091E7C7F1800FA
:10009E0000001B7C7C1B00000000091E7C7F1800EA
:1000AE0000001B7C7C1B00000810167C7F100800D3
:1000BE000010137C7E1800000008137C7F101000C7
:1000CE00000812FCFD3A0000000812FCFC22100091
:1000DE00000061127C7F106000002011127C7E19DE
:1000EE00000000310A7C7E0D00002011127C7E196A
:1000FE00000000310A7C7E0D00002011127C7E195A
:10010E00000000310A7C7E0D00002011127C7E1949
:08011E00000000310A7C7E0D97
:03029E00010B0051
:1001B200120003120273E4F50AE50A250BFFE43389
:1001C200FE740E2FF58274003EF583E493FD7C00ED
:1001D200AF0A120251050AE50AC3940840DBC37450
:1001E20017950AFF74019400FED3E50B9FE49E402D
:0601F200C5E4F50B80C01E
:03000B00020225C9
:04022500C0E0C0D0A5
:10022900758A66758CFC0509E50970020508C39491
:10023900C8E5089400400C75080075090074082584
:030249000BF50BA7
:05024C00D0D0D0E0322B
:05000300C2B6C2B522E7
:0201F800AD0751
:1001FA00E4FB74807E00A803088006CEA2E713CE33
:10020A0013D8F8FFEDF582EF558224FF92B4D2B6E7
:0A021A00C2B60BBB08DCD2B5C2B5BA
:0102240022B7
:10025100AA07AF051201F8AF027480A8070880024F
:10026100C313D8FCF4F5807F017E0012028A7580E9
:02027100FF226A
:10028A00EF4E600F7D027CC7DCFEDDFEEF1F70F0D3
:03029A001E80EDD6
:01029D00223E
:100273005389F0438901758A66758CFCC28DD28CD3
:07028300D2A9D2AFC2B922DB
:03000000020126D4
:0C012600787FE4F6D8FD75810B02016DB6
:100132000201B2E493A3F8E493A34003F68001F230
:1001420008DFF48029E493A3F85407240CC8C333CE
:10015200C4540F4420C8834004F456800146F6DF9D
:10016200E4800B010204081020408090029EE47E8D
:10017200019360BCA3FF543F30E509541FFEE49392
:10018200A360010ECF54C025E060A840B8E493A359
:10019200FAE493A3F8E493A3C8C582C8CAC583CA84
:1001A200F0A3C8C582C8CAC583CADFE9DEE780BE3C
:0102A100005C
:00000001FF
