:10000E000000F117F1F3F2B7F37BF42AF4D7F57190
:10001E00F609F69CF71FF79EF818F88CF8F3F95BC3
:10002E00F9B8FA15FA67FAB9FB04FB4BFB90FBCF54
:10003E00FC0CFC44FC79FCACFCDCFD09FD34FD5CE5
:10004E00FD82FDA6FDC8FDE8FE06FE22FE3DFE5623
:10005E00FE6EFE85FE9AFEAEFEC1FED3FEE4FEF4FB
:10006E00FF03FF11FF1EFF2BFF37FF42FF4DFF5710
:10007E00FF61FF69FF72FF7AFF81250227022902C5
:10008E002C012C0929022702250227012909250204
:10009E0027022902300131073102300231013003CB
:1000AE002C012E032C062502270229022C012C09D5
:1000BE0029022702250227012509250227022902E6
:1000CE002C01250625022502240222022402250CDB
:1000DE0025012903290829022702250227042906BA
:1000EE0000042501290329082A0229022C042508C7
:1000FE00000425012A032A082A02290225022004C7
:10010E0029060004250129032704250129032704B4
:10011E0025012903270C2501290329082902270275
:10012E00250227042C0600042501290329082A028A
:10013E0029022C0425080004250129032A082A0275
:10014E00290225022C042902310800022C022A025F
:10015E002902250225022404250A25022702290246
:10016E002C012C0929022702250227012909250223
:10017E002702290231013107310230022E012C03F0
:10018E002E012E032C062502270229022C012C09F2
:10019E002902270225022701250925022702290205
:1001AE002C022C022A022A022902310229022904D7
:1001BE00270200042502270229022C012C092902FC
:1001CE0027022502270129092502270229023101CA
:1001DE003107310230022E012C032E012E032C0684
:1001EE002502270229022C012C09290227022502A9
:1001FE00270125092502270229022C01250925029E
:0B020E00240222022401250D290CFF10
:10027A001203161202198F08E50990008893FF608D
:10028A0020F50A0509E5099375F0FAA4FFAEF01204
:10029A00032D0509C28C7F057E0012032DD28C80A6
:1002AA0004C28C80FEE508B40109C28CE4F50AF5A3
:1002BA0009F508E508B402BBC28C120219BF03FA99
:0402CA00D28C80AFA3
:03000B000202CE20
:1002CE00C0E0C083C082C0D075D000C006E50A254C
:1002DE00E0240EF582E43400F5837401937002E499
:1002EE0093601AE50A25E0240EF582E43400F583C6
:1002FE00E493FE740193F58AEEF58CB2A5D006D088
:08030E00D0D082D083D0E03290
:10032D00EF4E600F7D027CC7DCFEDDFEEF1F70F02F
:03033D001E80ED32
:01034000229A
:100316005389F0438901758A66758CFCC28DD28C2F
:07032600D2A9D2AFC2B92237
:10021900E4F50B20B1137F14FE12032D30B1FD7FDD
:10022900147E0012032D750B0120B0147F147E007B
:1002390012032D30B0FD7F147E0012032D750B02C1
:1002490020B2147F147E0012032D30B2FD7F147E7C
:100259000012032D750B0320B3147F147E001203C3
:100269002D30B3FD7F147E0012032D750B04AF0BE7
:010279002262
:03000000020341B7
:0C034100787FE4F6D8FD75810B02027A8B
:00000001FF
